:060000000A128A11142906
:100200008A010A140F3982073F3406345B344F34B5
:1002100066346D347D3407347F346F3477347C3406
:1002200039345E34793471343C213521262103136D
:1002300083120B1D19293121632105184E218518C0
:1002400056212008002187007021192903138316E5
:1002500081128111011581140114031383123121BC
:100260000800CF3081000B110800031383160F1311
:100270008F160F160F1408000317831688018901C3
:10028000031383168601870105148514051188015F
:10029000031383128501860187010800051C4E297E
:1002A00005185029A00A201AA0010800851C56290B
:1002B00085185829A003A01B5E2108002012A01257
:1002C0002013A0130800880A081A88010A300802BF
:1002D00003196B2108008801860A061A86010800A6
:1002E00006082002031975210800860105157A21E8
:1002F00005110800E830A1008021A10B7C2908002D
:0A030000A530A200A20B822908001C
:04400E00C430FF3F7C
:00000001FF
